{
  "_format": "hh-sol-artifact-1",
  "contractName": "EspadaMarketplace",
  "sourceName": "contracts/EspadaMarketplace.sol",
  "abi": [
    {
      "inputs": [],
      "stateMutability": "nonpayable",
      "type": "constructor"
    },
    {
      "anonymous": false,
      "inputs": [
        {
          "indexed": true,
          "internalType": "uint256",
          "name": "escrowId",
          "type": "uint256"
        },
        {
          "indexed": true,
          "internalType": "address",
          "name": "initiator",
          "type": "address"
        }
      ],
      "name": "DisputeCreated",
      "type": "event"
    },
    {
      "anonymous": false,
      "inputs": [
        {
          "indexed": true,
          "internalType": "uint256",
          "name": "escrowId",
          "type": "uint256"
        },
        {
          "indexed": true,
          "internalType": "address",
          "name": "winner",
          "type": "address"
        }
      ],
      "name": "DisputeResolved",
      "type": "event"
    },
    {
      "anonymous": false,
      "inputs": [
        {
          "indexed": true,
          "internalType": "uint256",
          "name": "escrowId",
          "type": "uint256"
        },
        {
          "indexed": true,
          "internalType": "address",
          "name": "buyer",
          "type": "address"
        },
        {
          "indexed": true,
          "internalType": "address",
          "name": "seller",
          "type": "address"
        },
        {
          "indexed": false,
          "internalType": "uint256",
          "name": "amount",
          "type": "uint256"
        },
        {
          "indexed": false,
          "internalType": "string",
          "name": "produkId",
          "type": "string"
        },
        {
          "indexed": false,
          "internalType": "string",
          "name": "gameId",
          "type": "string"
        }
      ],
      "name": "EscrowCreated",
      "type": "event"
    },
    {
      "anonymous": false,
      "inputs": [
        {
          "indexed": true,
          "internalType": "uint256",
          "name": "escrowId",
          "type": "uint256"
        },
        {
          "indexed": true,
          "internalType": "address",
          "name": "recipient",
          "type": "address"
        },
        {
          "indexed": false,
          "internalType": "uint256",
          "name": "amount",
          "type": "uint256"
        }
      ],
      "name": "PaymentReleased",
      "type": "event"
    },
    {
      "inputs": [],
      "name": "PLATFORM_FEE",
      "outputs": [
        {
          "internalType": "uint256",
          "name": "",
          "type": "uint256"
        }
      ],
      "stateMutability": "view",
      "type": "function"
    },
    {
      "inputs": [
        {
          "internalType": "address",
          "name": "_admin",
          "type": "address"
        }
      ],
      "name": "addAdmin",
      "outputs": [],
      "stateMutability": "nonpayable",
      "type": "function"
    },
    {
      "inputs": [
        {
          "internalType": "uint256",
          "name": "_escrowId",
          "type": "uint256"
        },
        {
          "internalType": "string",
          "name": "_reason",
          "type": "string"
        }
      ],
      "name": "adminCreateDispute",
      "outputs": [],
      "stateMutability": "nonpayable",
      "type": "function"
    },
    {
      "inputs": [
        {
          "internalType": "uint256",
          "name": "_escrowId",
          "type": "uint256"
        },
        {
          "internalType": "string",
          "name": "_reason",
          "type": "string"
        }
      ],
      "name": "adminRefund",
      "outputs": [],
      "stateMutability": "nonpayable",
      "type": "function"
    },
    {
      "inputs": [
        {
          "internalType": "uint256",
          "name": "_escrowId",
          "type": "uint256"
        },
        {
          "internalType": "string",
          "name": "_reason",
          "type": "string"
        }
      ],
      "name": "adminReleaseFunds",
      "outputs": [],
      "stateMutability": "nonpayable",
      "type": "function"
    },
    {
      "inputs": [
        {
          "internalType": "address",
          "name": "",
          "type": "address"
        }
      ],
      "name": "admins",
      "outputs": [
        {
          "internalType": "bool",
          "name": "",
          "type": "bool"
        }
      ],
      "stateMutability": "view",
      "type": "function"
    },
    {
      "inputs": [
        {
          "internalType": "uint256",
          "name": "_escrowId",
          "type": "uint256"
        }
      ],
      "name": "confirmReceived",
      "outputs": [],
      "stateMutability": "nonpayable",
      "type": "function"
    },
    {
      "inputs": [
        {
          "internalType": "uint256",
          "name": "_escrowId",
          "type": "uint256"
        }
      ],
      "name": "createDispute",
      "outputs": [],
      "stateMutability": "nonpayable",
      "type": "function"
    },
    {
      "inputs": [
        {
          "internalType": "address",
          "name": "_seller",
          "type": "address"
        },
        {
          "internalType": "string",
          "name": "_produkId",
          "type": "string"
        },
        {
          "internalType": "string",
          "name": "_gameId",
          "type": "string"
        }
      ],
      "name": "createEscrow",
      "outputs": [
        {
          "internalType": "uint256",
          "name": "",
          "type": "uint256"
        }
      ],
      "stateMutability": "payable",
      "type": "function"
    },
    {
      "inputs": [],
      "name": "emergencyWithdraw",
      "outputs": [],
      "stateMutability": "nonpayable",
      "type": "function"
    },
    {
      "inputs": [],
      "name": "escrowCounter",
      "outputs": [
        {
          "internalType": "uint256",
          "name": "",
          "type": "uint256"
        }
      ],
      "stateMutability": "view",
      "type": "function"
    },
    {
      "inputs": [
        {
          "internalType": "uint256",
          "name": "",
          "type": "uint256"
        }
      ],
      "name": "escrows",
      "outputs": [
        {
          "internalType": "uint256",
          "name": "escrowId",
          "type": "uint256"
        },
        {
          "internalType": "address",
          "name": "buyer",
          "type": "address"
        },
        {
          "internalType": "address",
          "name": "seller",
          "type": "address"
        },
        {
          "internalType": "uint256",
          "name": "amount",
          "type": "uint256"
        },
        {
          "internalType": "enum EspadaMarketplace.Status",
          "name": "status",
          "type": "uint8"
        },
        {
          "internalType": "uint256",
          "name": "createdAt",
          "type": "uint256"
        },
        {
          "internalType": "bool",
          "name": "disputeActive",
          "type": "bool"
        },
        {
          "internalType": "string",
          "name": "produkId",
          "type": "string"
        },
        {
          "internalType": "string",
          "name": "gameId",
          "type": "string"
        },
        {
          "internalType": "address",
          "name": "processedBy",
          "type": "address"
        },
        {
          "internalType": "string",
          "name": "adminNote",
          "type": "string"
        },
        {
          "internalType": "uint256",
          "name": "platformFee",
          "type": "uint256"
        },
        {
          "internalType": "uint256",
          "name": "sellerAmount",
          "type": "uint256"
        }
      ],
      "stateMutability": "view",
      "type": "function"
    },
    {
      "inputs": [],
      "name": "owner",
      "outputs": [
        {
          "internalType": "address",
          "name": "",
          "type": "address"
        }
      ],
      "stateMutability": "view",
      "type": "function"
    },
    {
      "inputs": [
        {
          "internalType": "address",
          "name": "_admin",
          "type": "address"
        }
      ],
      "name": "removeAdmin",
      "outputs": [],
      "stateMutability": "nonpayable",
      "type": "function"
    },
    {
      "inputs": [
        {
          "internalType": "uint256",
          "name": "_escrowId",
          "type": "uint256"
        },
        {
          "internalType": "address",
          "name": "_winner",
          "type": "address"
        },
        {
          "internalType": "string",
          "name": "_resolution",
          "type": "string"
        }
      ],
      "name": "resolveDispute",
      "outputs": [],
      "stateMutability": "nonpayable",
      "type": "function"
    },
    {
      "stateMutability": "payable",
      "type": "receive"
    }
  ],
  "bytecode": "0x608060405234801561001057600080fd5b50600080546001600160a01b0319163390811782558152600260205260408120805460ff1916600190811790915555611bbf8061004e6000396000f3fe6080604052600436106100ec5760003560e01c8063704802751161008a578063bfa4890e11610059578063bfa4890e146102f7578063c7ceafea14610317578063db2e21bc1461032d578063ecba1b791461034257600080fd5b8063704802751461025f5780638da5cb5b1461027f578063a14ef476146102b7578063b31aa44f146102d757600080fd5b806327dac36d116100c657806327dac36d146101bc57806334fbc9a1146101dc578063429b62e5146101ff5780634ac8a5291461023f57600080fd5b8063012f52ee14610138578063156cafd01461017a5780631785f53c1461019c57600080fd5b366101335760405162461bcd60e51b815260206004820152601260248201527155736520637265617465457363726f77282960701b60448201526064015b60405180910390fd5b600080fd5b34801561014457600080fd5b5061015861015336600461159f565b610355565b6040516101719d9c9b9a99989796959493929190611636565b60405180910390f35b34801561018657600080fd5b5061019a61019536600461178a565b610573565b005b3480156101a857600080fd5b5061019a6101b73660046117ed565b6106e0565b3480156101c857600080fd5b5061019a6101d736600461159f565b61072b565b3480156101e857600080fd5b506101f160fa81565b604051908152602001610171565b34801561020b57600080fd5b5061022f61021a3660046117ed565b60026020526000908152604090205460ff1681565b6040519015158152602001610171565b34801561024b57600080fd5b5061019a61025a36600461159f565b610917565b34801561026b57600080fd5b5061019a61027a3660046117ed565b610a96565b34801561028b57600080fd5b5060005461029f906001600160a01b031681565b6040516001600160a01b039091168152602001610171565b3480156102c357600080fd5b5061019a6102d236600461178a565b610ae4565b3480156102e357600080fd5b5061019a6102f236600461180f565b610c12565b34801561030357600080fd5b5061019a61031236600461178a565b610f44565b34801561032357600080fd5b506101f160015481565b34801561033957600080fd5b5061019a6110ac565b6101f1610350366004611866565b611113565b60036020819052600091825260409091208054600182015460028301549383015460048401546005850154600686015460078701805496986001600160a01b0396871698961696949560ff948516959394909216926103b3906118d0565b80601f01602080910402602001604051908101604052809291908181526020018280546103df906118d0565b801561042c5780601f106104015761010080835404028352916020019161042c565b820191906000526020600020905b81548152906001019060200180831161040f57829003601f168201915b505050505090806008018054610441906118d0565b80601f016020809104026020016040519081016040528092919081815260200182805461046d906118d0565b80156104ba5780601f1061048f576101008083540402835291602001916104ba565b820191906000526020600020905b81548152906001019060200180831161049d57829003601f168201915b5050506009840154600a8501805494956001600160a01b039092169491935091506104e4906118d0565b80601f0160208091040260200160405190810160405280929190818152602001828054610510906118d0565b801561055d5780601f106105325761010080835404028352916020019161055d565b820191906000526020600020905b81548152906001019060200180831161054057829003601f168201915b50505050509080600b01549080600c015490508d565b8160008111801561058657506001548111155b6105a25760405162461bcd60e51b815260040161012a9061190a565b3360009081526002602052604090205460ff16806105ca57506000546001600160a01b031633145b6105e65760405162461bcd60e51b815260040161012a90611934565b60008381526003602052604081209060048083015460ff169081111561060e5761060e6115b8565b1461062b5760405162461bcd60e51b815260040161012a90611958565b60048101805460ff19166003179055600981018054336001600160a01b0319909116179055600a810161065e84826119cf565b50600181015460038201546040516001600160a01b039092169181156108fc0291906000818181858888f1935050505015801561069f573d6000803e3d6000fd5b50600181015460038201546040519081526001600160a01b03909116908590600080516020611b6a833981519152906020015b60405180910390a350505050565b6000546001600160a01b0316331461070a5760405162461bcd60e51b815260040161012a90611a8f565b6001600160a01b03166000908152600260205260409020805460ff19169055565b8060008111801561073e57506001548111155b61075a5760405162461bcd60e51b815260040161012a9061190a565b60008281526003602052604090206001015482906001600160a01b031633146107b25760405162461bcd60e51b815260206004820152600a60248201526927b7363c90313abcb2b960b11b604482015260640161012a565b60008381526003602052604081209060048083015460ff16908111156107da576107da6115b8565b146107f75760405162461bcd60e51b815260040161012a90611958565b600681015460ff161561083d5760405162461bcd60e51b815260206004820152600e60248201526d446973707574652061637469766560901b604482015260640161012a565b60048101805460ff19166001179055600981018054336001600160a01b03199091161790556002810154600c8201546040516001600160a01b03909216916108fc82150291906000818181858888f193505050501580156108a2573d6000803e3d6000fd5b5060008054600b8301546040516001600160a01b039092169281156108fc029290818181858888f193505050501580156108e0573d6000803e3d6000fd5b506002810154600c8201546040519081526001600160a01b03909116908590600080516020611b6a833981519152906020016106d2565b8060008111801561092a57506001548111155b6109465760405162461bcd60e51b815260040161012a9061190a565b600082815260036020526040902060018101546001600160a01b031633148061097b575060028101546001600160a01b031633145b6109be5760405162461bcd60e51b815260206004820152601460248201527327b7363c90313abcb2b91037b91039b2b63632b960611b604482015260640161012a565b600060048083015460ff16908111156109d9576109d96115b8565b146109f65760405162461bcd60e51b815260040161012a90611958565b600681015460ff1615610a445760405162461bcd60e51b81526020600482015260166024820152754469737075746520616c72656164792061637469766560501b604482015260640161012a565b60048101805460ff199081166002179091556006820180549091166001179055604051339084907f3c9db11b5587ddca19c48971a5bd5cb36500cd7d156815c6728cbc58ff9ac6bf90600090a3505050565b6000546001600160a01b03163314610ac05760405162461bcd60e51b815260040161012a90611a8f565b6001600160a01b03166000908152600260205260409020805460ff19166001179055565b81600081118015610af757506001548111155b610b135760405162461bcd60e51b815260040161012a9061190a565b3360009081526002602052604090205460ff1680610b3b57506000546001600160a01b031633145b610b575760405162461bcd60e51b815260040161012a90611934565b60008381526003602052604081209060048083015460ff1690811115610b7f57610b7f6115b8565b14610b9c5760405162461bcd60e51b815260040161012a90611958565b6004818101805460ff191660018302179055506009810180546001600160a01b03191633179055600a8101610bd184826119cf565b506002810154600c8201546040516001600160a01b039092169181156108fc0291906000818181858888f193505050501580156108a2573d6000803e3d6000fd5b82600081118015610c2557506001548111155b610c415760405162461bcd60e51b815260040161012a9061190a565b3360009081526002602052604090205460ff1680610c6957506000546001600160a01b031633145b610c855760405162461bcd60e51b815260040161012a90611934565b6000848152600360205260409020600260048083015460ff1690811115610cae57610cae6115b8565b14610cef5760405162461bcd60e51b81526020600482015260116024820152704e6f20616374697665206469737075746560781b604482015260640161012a565b60018101546001600160a01b0385811691161480610d1c575060028101546001600160a01b038581169116145b610d685760405162461bcd60e51b815260206004820152601e60248201527f57696e6e6572206d757374206265206275796572206f722073656c6c65720000604482015260640161012a565b60068101805460ff191690556009810180546001600160a01b03191633179055600a8101610d9684826119cf565b5060028101546001600160a01b0390811690851603610e7b5760048101805460ff191660011790556002810154600c8201546040516001600160a01b03909216916108fc82150291906000818181858888f19350505050158015610dfe573d6000803e3d6000fd5b5060008054600b8301546040516001600160a01b039092169281156108fc029290818181858888f19350505050158015610e3c573d6000803e3d6000fd5b506002810154600c8201546040519081526001600160a01b03909116908690600080516020611b6a8339815191529060200160405180910390a3610f07565b60048101805460ff191660039081179091556001820154908201546040516001600160a01b03909216916108fc82150291906000818181858888f19350505050158015610ecc573d6000803e3d6000fd5b50600181015460038201546040519081526001600160a01b03909116908690600080516020611b6a8339815191529060200160405180910390a35b6040516001600160a01b0385169086907ff77ceb5e091d2da041bc760667f9d5fe7a756949eaf29250ad0e60ca6f4c27d990600090a35050505050565b81600081118015610f5757506001548111155b610f735760405162461bcd60e51b815260040161012a9061190a565b3360009081526002602052604090205460ff1680610f9b57506000546001600160a01b031633145b610fb75760405162461bcd60e51b815260040161012a90611934565b60008381526003602052604081209060048083015460ff1690811115610fdf57610fdf6115b8565b14610ffc5760405162461bcd60e51b815260040161012a90611958565b600681015460ff161561104a5760405162461bcd60e51b81526020600482015260166024820152754469737075746520616c72656164792061637469766560501b604482015260640161012a565b60048101805460ff199081166002179091556006820180549091166001179055600a810161107884826119cf565b50604051339085907f3c9db11b5587ddca19c48971a5bd5cb36500cd7d156815c6728cbc58ff9ac6bf90600090a350505050565b6000546001600160a01b031633146110d65760405162461bcd60e51b815260040161012a90611a8f565b600080546040516001600160a01b03909116914780156108fc02929091818181858888f19350505050158015611110573d6000803e3d6000fd5b50565b60006001600160a01b0384161580159061113657506001600160a01b0384163314155b6111735760405162461bcd60e51b815260206004820152600e60248201526d24b73b30b634b21039b2b63632b960911b604482015260640161012a565b60008351116111ba5760405162461bcd60e51b8152602060048201526013602482015272141c9bd91d58dd081251081c995c5d5a5c9959606a1b604482015260640161012a565b600034116111fc5760405162461bcd60e51b815260206004820152600f60248201526e105b5bdd5b9d081c995c5d5a5c9959608a1b604482015260640161012a565b604080518082019091526002815261135360f21b6020918201528251908301207f85f789f5b9a4eac9c1e7bc9f2ebbb32ce45a5ca7376dcdda4a34630c1ef5d98614806112875750604080518082019091526002815261232360f11b6020918201528251908301207f23a1365718f551f583dc681b4b10873b683577f2e45f75ed1cc85f5086aeef8c145b806112d257506040805180820190915260048152635055424760e01b6020918201528251908301207fd60263f9da4c5956e33aba4e8b7fc8c8ce5376fd86491cd962af53a2bc7ddb3a145b8061131b5750604080518082019091526002815261474960f01b6020918201528251908301207ffc7405c0a45fe091930a734d3d7f0b9a8485dda3d64a6ef3c6c34cebbf97b871145b61135c5760405162461bcd60e51b815260206004820152601260248201527111d85b59481b9bdd081cdd5c1c1bdc9d195960721b604482015260640161012a565b6001805490600061136c83611ac9565b9091555050600154600061271061138460fa34611ae2565b61138e9190611aff565b9050600061139c8234611b21565b604080516101a0810182528581523360208201526001600160a01b038a16918101919091523460608201529091506080810160008152426020808301919091526000604080840182905260608085018c905260808086018c905260a086018490528251808601845284815260c087015260e086018990526101009095018790528883526003808552928290208651815593860151600185810180546001600160a01b039384166001600160a01b0319918216179091559388015160028701805491909316941693909317905585015191830191909155918301516004808301805493949293909260ff199190911691849081111561149c5761149c6115b8565b021790555060a0820151600582015560c082015160068201805460ff191691151591909117905560e082015160078201906114d790826119cf565b5061010082015160088201906114ed90826119cf565b506101208201516009820180546001600160a01b0319166001600160a01b03909216919091179055610140820151600a82019061152a90826119cf565b5061016082015181600b015561018082015181600c0155905050866001600160a01b0316336001600160a01b0316847f0bcf1e4a8179b3db7b841fac86f1eea3a6a1bce099a9502f05257ee5efecdffe348a8a60405161158c93929190611b34565b60405180910390a4509095945050505050565b6000602082840312156115b157600080fd5b5035919050565b634e487b7160e01b600052602160045260246000fd5b600581106115ec57634e487b7160e01b600052602160045260246000fd5b9052565b6000815180845260005b81811015611616576020818501810151868301820152016115fa565b506000602082860101526020601f19601f83011685010191505092915050565b8d81526001600160a01b038d811660208301528c16604082015260006101a08c6060840152611668608084018d6115ce565b8a60a084015261167c60c084018b15159052565b8060e084015261168e8184018a6115f0565b90508281036101008401526116a381896115f0565b6001600160a01b03881661012085015290508281036101408401526116c881876115f0565b610160840195909552505061018001529b9a5050505050505050505050565b634e487b7160e01b600052604160045260246000fd5b600082601f83011261170e57600080fd5b813567ffffffffffffffff80821115611729576117296116e7565b604051601f8301601f19908116603f01168101908282118183101715611751576117516116e7565b8160405283815286602085880101111561176a57600080fd5b836020870160208301376000602085830101528094505050505092915050565b6000806040838503121561179d57600080fd5b82359150602083013567ffffffffffffffff8111156117bb57600080fd5b6117c7858286016116fd565b9150509250929050565b80356001600160a01b03811681146117e857600080fd5b919050565b6000602082840312156117ff57600080fd5b611808826117d1565b9392505050565b60008060006060848603121561182457600080fd5b83359250611834602085016117d1565b9150604084013567ffffffffffffffff81111561185057600080fd5b61185c868287016116fd565b9150509250925092565b60008060006060848603121561187b57600080fd5b611884846117d1565b9250602084013567ffffffffffffffff808211156118a157600080fd5b6118ad878388016116fd565b935060408601359150808211156118c357600080fd5b5061185c868287016116fd565b600181811c908216806118e457607f821691505b60208210810361190457634e487b7160e01b600052602260045260246000fd5b50919050565b60208082526010908201526f115cd8dc9bddc81b9bdd08199bdd5b9960821b604082015260600190565b6020808252600a908201526927b7363c9030b236b4b760b11b604082015260600190565b6020808252600e908201526d496e76616c69642073746174757360901b604082015260600190565b601f8211156119ca57600081815260208120601f850160051c810160208610156119a75750805b601f850160051c820191505b818110156119c6578281556001016119b3565b5050505b505050565b815167ffffffffffffffff8111156119e9576119e96116e7565b6119fd816119f784546118d0565b84611980565b602080601f831160018114611a325760008415611a1a5750858301515b600019600386901b1c1916600185901b1785556119c6565b600085815260208120601f198616915b82811015611a6157888601518255948401946001909101908401611a42565b5085821015611a7f5787850151600019600388901b60f8161c191681555b5050505050600190811b01905550565b6020808252600a908201526927b7363c9037bbb732b960b11b604082015260600190565b634e487b7160e01b600052601160045260246000fd5b600060018201611adb57611adb611ab3565b5060010190565b8082028115828204841417611af957611af9611ab3565b92915050565b600082611b1c57634e487b7160e01b600052601260045260246000fd5b500490565b81810381811115611af957611af9611ab3565b838152606060208201526000611b4d60608301856115f0565b8281036040840152611b5f81856115f0565b969550505050505056fe21d71db5be59bb9fa133895586b7404307dd33fb93b16db09dc6f1d9d7d231b0a26469706673582212209bf674d9facbc4908038cb7268351c4308a62c847e0c3b4ffff3eee744add46c64736f6c63430008130033",
  "linkReferences": {},
  "deployedLinkReferences": {}
}