{
  "_format": "hh-sol-artifact-1",
  "contractName": "EscrowFixed",
  "sourceName": "contracts/Escrow.sol",
  "abi": [
    {
      "inputs": [],
      "stateMutability": "nonpayable",
      "type": "constructor"
    },
    {
      "anonymous": false,
      "inputs": [
        {
          "indexed": true,
          "internalType": "uint256",
          "name": "escrowId",
          "type": "uint256"
        },
        {
          "indexed": true,
          "internalType": "address",
          "name": "admin",
          "type": "address"
        },
        {
          "indexed": false,
          "internalType": "uint256",
          "name": "amount",
          "type": "uint256"
        },
        {
          "indexed": false,
          "internalType": "string",
          "name": "reason",
          "type": "string"
        }
      ],
      "name": "AdminPaymentProcessed",
      "type": "event"
    },
    {
      "anonymous": false,
      "inputs": [
        {
          "indexed": true,
          "internalType": "uint256",
          "name": "escrowId",
          "type": "uint256"
        },
        {
          "indexed": true,
          "internalType": "address",
          "name": "admin",
          "type": "address"
        },
        {
          "indexed": false,
          "internalType": "uint256",
          "name": "amount",
          "type": "uint256"
        },
        {
          "indexed": false,
          "internalType": "string",
          "name": "reason",
          "type": "string"
        }
      ],
      "name": "AdminRefundProcessed",
      "type": "event"
    },
    {
      "anonymous": false,
      "inputs": [
        {
          "indexed": true,
          "internalType": "uint256",
          "name": "escrowId",
          "type": "uint256"
        },
        {
          "indexed": true,
          "internalType": "address",
          "name": "initiator",
          "type": "address"
        }
      ],
      "name": "DisputeCreated",
      "type": "event"
    },
    {
      "anonymous": false,
      "inputs": [
        {
          "indexed": true,
          "internalType": "uint256",
          "name": "escrowId",
          "type": "uint256"
        },
        {
          "indexed": true,
          "internalType": "address",
          "name": "winner",
          "type": "address"
        },
        {
          "indexed": false,
          "internalType": "uint256",
          "name": "amount",
          "type": "uint256"
        }
      ],
      "name": "DisputeResolved",
      "type": "event"
    },
    {
      "anonymous": false,
      "inputs": [
        {
          "indexed": true,
          "internalType": "uint256",
          "name": "escrowId",
          "type": "uint256"
        },
        {
          "indexed": true,
          "internalType": "address",
          "name": "buyer",
          "type": "address"
        },
        {
          "indexed": true,
          "internalType": "address",
          "name": "seller",
          "type": "address"
        },
        {
          "indexed": false,
          "internalType": "uint256",
          "name": "amount",
          "type": "uint256"
        }
      ],
      "name": "EscrowCreated",
      "type": "event"
    },
    {
      "anonymous": false,
      "inputs": [
        {
          "indexed": true,
          "internalType": "uint256",
          "name": "escrowId",
          "type": "uint256"
        },
        {
          "indexed": true,
          "internalType": "address",
          "name": "buyer",
          "type": "address"
        },
        {
          "indexed": false,
          "internalType": "uint256",
          "name": "amount",
          "type": "uint256"
        }
      ],
      "name": "PaymentDeposited",
      "type": "event"
    },
    {
      "anonymous": false,
      "inputs": [
        {
          "indexed": true,
          "internalType": "uint256",
          "name": "escrowId",
          "type": "uint256"
        },
        {
          "indexed": true,
          "internalType": "address",
          "name": "buyer",
          "type": "address"
        },
        {
          "indexed": false,
          "internalType": "uint256",
          "name": "amount",
          "type": "uint256"
        }
      ],
      "name": "PaymentRefunded",
      "type": "event"
    },
    {
      "anonymous": false,
      "inputs": [
        {
          "indexed": true,
          "internalType": "uint256",
          "name": "escrowId",
          "type": "uint256"
        },
        {
          "indexed": true,
          "internalType": "address",
          "name": "seller",
          "type": "address"
        },
        {
          "indexed": false,
          "internalType": "uint256",
          "name": "amount",
          "type": "uint256"
        }
      ],
      "name": "PaymentReleased",
      "type": "event"
    },
    {
      "inputs": [],
      "name": "DISPUTE_TIMEOUT",
      "outputs": [
        {
          "internalType": "uint256",
          "name": "",
          "type": "uint256"
        }
      ],
      "stateMutability": "view",
      "type": "function"
    },
    {
      "inputs": [],
      "name": "PAYMENT_TIMEOUT",
      "outputs": [
        {
          "internalType": "uint256",
          "name": "",
          "type": "uint256"
        }
      ],
      "stateMutability": "view",
      "type": "function"
    },
    {
      "inputs": [
        {
          "internalType": "address",
          "name": "_admin",
          "type": "address"
        }
      ],
      "name": "addAdmin",
      "outputs": [],
      "stateMutability": "nonpayable",
      "type": "function"
    },
    {
      "inputs": [
        {
          "internalType": "uint256",
          "name": "_escrowId",
          "type": "uint256"
        },
        {
          "internalType": "string",
          "name": "_reason",
          "type": "string"
        }
      ],
      "name": "adminCreateDispute",
      "outputs": [],
      "stateMutability": "nonpayable",
      "type": "function"
    },
    {
      "inputs": [
        {
          "internalType": "address",
          "name": "",
          "type": "address"
        }
      ],
      "name": "adminPaymentCount",
      "outputs": [
        {
          "internalType": "uint256",
          "name": "",
          "type": "uint256"
        }
      ],
      "stateMutability": "view",
      "type": "function"
    },
    {
      "inputs": [
        {
          "internalType": "uint256",
          "name": "_escrowId",
          "type": "uint256"
        },
        {
          "internalType": "string",
          "name": "_reason",
          "type": "string"
        }
      ],
      "name": "adminRefund",
      "outputs": [],
      "stateMutability": "nonpayable",
      "type": "function"
    },
    {
      "inputs": [
        {
          "internalType": "uint256",
          "name": "_escrowId",
          "type": "uint256"
        },
        {
          "internalType": "string",
          "name": "_reason",
          "type": "string"
        }
      ],
      "name": "adminReleaseFunds",
      "outputs": [],
      "stateMutability": "nonpayable",
      "type": "function"
    },
    {
      "inputs": [
        {
          "internalType": "address",
          "name": "",
          "type": "address"
        }
      ],
      "name": "admins",
      "outputs": [
        {
          "internalType": "bool",
          "name": "",
          "type": "bool"
        }
      ],
      "stateMutability": "view",
      "type": "function"
    },
    {
      "inputs": [
        {
          "internalType": "uint256[]",
          "name": "_escrowIds",
          "type": "uint256[]"
        },
        {
          "internalType": "uint8",
          "name": "_action",
          "type": "uint8"
        },
        {
          "internalType": "string",
          "name": "_reason",
          "type": "string"
        }
      ],
      "name": "batchProcess",
      "outputs": [],
      "stateMutability": "nonpayable",
      "type": "function"
    },
    {
      "inputs": [
        {
          "internalType": "uint256",
          "name": "_escrowId",
          "type": "uint256"
        }
      ],
      "name": "cancelEscrow",
      "outputs": [],
      "stateMutability": "nonpayable",
      "type": "function"
    },
    {
      "inputs": [
        {
          "internalType": "uint256",
          "name": "_escrowId",
          "type": "uint256"
        }
      ],
      "name": "confirmReceived",
      "outputs": [],
      "stateMutability": "nonpayable",
      "type": "function"
    },
    {
      "inputs": [
        {
          "internalType": "uint256",
          "name": "_escrowId",
          "type": "uint256"
        }
      ],
      "name": "createDispute",
      "outputs": [],
      "stateMutability": "nonpayable",
      "type": "function"
    },
    {
      "inputs": [
        {
          "internalType": "address",
          "name": "_seller",
          "type": "address"
        },
        {
          "internalType": "string",
          "name": "_productCode",
          "type": "string"
        }
      ],
      "name": "createEscrow",
      "outputs": [
        {
          "internalType": "uint256",
          "name": "",
          "type": "uint256"
        }
      ],
      "stateMutability": "payable",
      "type": "function"
    },
    {
      "inputs": [],
      "name": "emergencyWithdraw",
      "outputs": [],
      "stateMutability": "nonpayable",
      "type": "function"
    },
    {
      "inputs": [],
      "name": "escrowCounter",
      "outputs": [
        {
          "internalType": "uint256",
          "name": "",
          "type": "uint256"
        }
      ],
      "stateMutability": "view",
      "type": "function"
    },
    {
      "inputs": [
        {
          "internalType": "uint256",
          "name": "",
          "type": "uint256"
        }
      ],
      "name": "escrows",
      "outputs": [
        {
          "internalType": "uint256",
          "name": "escrowId",
          "type": "uint256"
        },
        {
          "internalType": "address",
          "name": "buyer",
          "type": "address"
        },
        {
          "internalType": "address",
          "name": "seller",
          "type": "address"
        },
        {
          "internalType": "uint256",
          "name": "amount",
          "type": "uint256"
        },
        {
          "internalType": "enum EscrowFixed.EscrowStatus",
          "name": "status",
          "type": "uint8"
        },
        {
          "internalType": "uint256",
          "name": "createdAt",
          "type": "uint256"
        },
        {
          "internalType": "uint256",
          "name": "timeoutAt",
          "type": "uint256"
        },
        {
          "internalType": "bool",
          "name": "disputeActive",
          "type": "bool"
        },
        {
          "internalType": "address",
          "name": "disputeInitiator",
          "type": "address"
        },
        {
          "internalType": "string",
          "name": "productCode",
          "type": "string"
        },
        {
          "internalType": "address",
          "name": "processedBy",
          "type": "address"
        },
        {
          "internalType": "uint256",
          "name": "processedAt",
          "type": "uint256"
        },
        {
          "internalType": "string",
          "name": "adminNote",
          "type": "string"
        }
      ],
      "stateMutability": "view",
      "type": "function"
    },
    {
      "inputs": [
        {
          "internalType": "address",
          "name": "_admin",
          "type": "address"
        }
      ],
      "name": "getAdminPaymentCount",
      "outputs": [
        {
          "internalType": "uint256",
          "name": "",
          "type": "uint256"
        }
      ],
      "stateMutability": "view",
      "type": "function"
    },
    {
      "inputs": [],
      "name": "getContractBalance",
      "outputs": [
        {
          "internalType": "uint256",
          "name": "",
          "type": "uint256"
        }
      ],
      "stateMutability": "view",
      "type": "function"
    },
    {
      "inputs": [],
      "name": "getContractStats",
      "outputs": [
        {
          "internalType": "uint256",
          "name": "totalEscrows",
          "type": "uint256"
        },
        {
          "internalType": "uint256",
          "name": "totalAdminProcessed",
          "type": "uint256"
        },
        {
          "internalType": "uint256",
          "name": "contractBalance",
          "type": "uint256"
        }
      ],
      "stateMutability": "view",
      "type": "function"
    },
    {
      "inputs": [
        {
          "internalType": "uint256",
          "name": "_escrowId",
          "type": "uint256"
        }
      ],
      "name": "getEscrow",
      "outputs": [
        {
          "components": [
            {
              "internalType": "uint256",
              "name": "escrowId",
              "type": "uint256"
            },
            {
              "internalType": "address",
              "name": "buyer",
              "type": "address"
            },
            {
              "internalType": "address",
              "name": "seller",
              "type": "address"
            },
            {
              "internalType": "uint256",
              "name": "amount",
              "type": "uint256"
            },
            {
              "internalType": "enum EscrowFixed.EscrowStatus",
              "name": "status",
              "type": "uint8"
            },
            {
              "internalType": "uint256",
              "name": "createdAt",
              "type": "uint256"
            },
            {
              "internalType": "uint256",
              "name": "timeoutAt",
              "type": "uint256"
            },
            {
              "internalType": "bool",
              "name": "disputeActive",
              "type": "bool"
            },
            {
              "internalType": "address",
              "name": "disputeInitiator",
              "type": "address"
            },
            {
              "internalType": "string",
              "name": "productCode",
              "type": "string"
            },
            {
              "internalType": "address",
              "name": "processedBy",
              "type": "address"
            },
            {
              "internalType": "uint256",
              "name": "processedAt",
              "type": "uint256"
            },
            {
              "internalType": "string",
              "name": "adminNote",
              "type": "string"
            }
          ],
          "internalType": "struct EscrowFixed.EscrowData",
          "name": "",
          "type": "tuple"
        }
      ],
      "stateMutability": "view",
      "type": "function"
    },
    {
      "inputs": [
        {
          "internalType": "address",
          "name": "_address",
          "type": "address"
        }
      ],
      "name": "isAdmin",
      "outputs": [
        {
          "internalType": "bool",
          "name": "",
          "type": "bool"
        }
      ],
      "stateMutability": "view",
      "type": "function"
    },
    {
      "inputs": [],
      "name": "owner",
      "outputs": [
        {
          "internalType": "address",
          "name": "",
          "type": "address"
        }
      ],
      "stateMutability": "view",
      "type": "function"
    },
    {
      "inputs": [
        {
          "internalType": "address",
          "name": "_admin",
          "type": "address"
        }
      ],
      "name": "removeAdmin",
      "outputs": [],
      "stateMutability": "nonpayable",
      "type": "function"
    },
    {
      "inputs": [
        {
          "internalType": "uint256",
          "name": "_escrowId",
          "type": "uint256"
        },
        {
          "internalType": "address",
          "name": "_winner",
          "type": "address"
        }
      ],
      "name": "resolveDispute",
      "outputs": [],
      "stateMutability": "nonpayable",
      "type": "function"
    },
    {
      "inputs": [
        {
          "internalType": "uint256",
          "name": "_escrowId",
          "type": "uint256"
        }
      ],
      "name": "timeoutRefund",
      "outputs": [],
      "stateMutability": "nonpayable",
      "type": "function"
    },
    {
      "inputs": [],
      "name": "totalAdminPayments",
      "outputs": [
        {
          "internalType": "uint256",
          "name": "",
          "type": "uint256"
        }
      ],
      "stateMutability": "view",
      "type": "function"
    }
  ],
  "bytecode": "0x608060405234801561001057600080fd5b50600380546001600160a01b0319163390811790915560009081526001602081905260408220805460ff191690911790556004819055600555612a9d806100586000396000f3fe6080604052600436106101815760003560e01c8063507290ad116100d1578063a14ef4761161008a578063db2e21bc11610064578063db2e21bc146104a0578063dcdfd05e146104b5578063dfe6b5d6146104d5578063e01824361461050457600080fd5b8063a14ef4761461044a578063bfa4890e1461046a578063c7ceafea1461048a57600080fd5b8063507290ad1461034f578063605c9a911461037c5780636f9fb98a146103b257806370480275146103c55780637d19e596146103e55780638da5cb5b1461041257600080fd5b806327dac36d1161013e5780633f407b4f116101185780633f407b4f146102d5578063429b62e5146102e8578063486265c6146103185780634ac8a5291461032f57600080fd5b806327dac36d1461027f5780632ba438231461029f57806330852cc0146102b557600080fd5b8063012f52ee146101865780630e33599d146101c8578063156cafd0146101ea5780631785f53c1461020a578063218c4da01461022a57806324d7806c1461024f575b600080fd5b34801561019257600080fd5b506101a66101a136600461221c565b610524565b6040516101bf9d9c9b9a999897969594939291906122b3565b60405180910390f35b3480156101d457600080fd5b506101e86101e336600461237f565b6106c0565b005b3480156101f657600080fd5b506101e8610205366004612462565b6109f1565b34801561021657600080fd5b506101e86102253660046124a9565b610bf1565b34801561023657600080fd5b506102416201518081565b6040519081526020016101bf565b34801561025b57600080fd5b5061026f61026a3660046124a9565b610c90565b60405190151581526020016101bf565b34801561028b57600080fd5b506101e861029a36600461221c565b610cca565b3480156102ab57600080fd5b5061024160055481565b3480156102c157600080fd5b506101e86102d03660046124dc565b610e7b565b6102416102e33660046125b7565b6112e0565b3480156102f457600080fd5b5061026f6103033660046124a9565b60016020526000908152604090205460ff1681565b34801561032457600080fd5b5061024162093a8081565b34801561033b57600080fd5b506101e861034a36600461221c565b611637565b34801561035b57600080fd5b5061024161036a3660046124a9565b60026020526000908152604090205481565b34801561038857600080fd5b506102416103973660046124a9565b6001600160a01b031660009081526002602052604090205490565b3480156103be57600080fd5b5047610241565b3480156103d157600080fd5b506101e86103e03660046124a9565b6117e7565b3480156103f157600080fd5b5061040561040036600461221c565b611886565b6040516101bf91906125ef565b34801561041e57600080fd5b50600354610432906001600160a01b031681565b6040516001600160a01b0390911681526020016101bf565b34801561045657600080fd5b506101e8610465366004612462565b611b49565b34801561047657600080fd5b506101e8610485366004612462565b611d5c565b34801561049657600080fd5b5061024160045481565b3480156104ac57600080fd5b506101e8611efb565b3480156104c157600080fd5b506101e86104d036600461221c565b611f61565b3480156104e157600080fd5b5060045460055447604080519384526020840192909252908201526060016101bf565b34801561051057600080fd5b506101e861051f36600461221c565b612102565b60006020819052908152604090208054600182015460028301546003840154600485015460058601546006870154600788015460088901805498996001600160a01b039889169997891698969760ff96871697959694959484169461010090940490931692909190610595906126fd565b80601f01602080910402602001604051908101604052809291908181526020018280546105c1906126fd565b801561060e5780601f106105e35761010080835404028352916020019161060e565b820191906000526020600020905b8154815290600101906020018083116105f157829003601f168201915b505050506009830154600a840154600b8501805494956001600160a01b03909316949193509061063d906126fd565b80601f0160208091040260200160405190810160405280929190818152602001828054610669906126fd565b80156106b65780601f1061068b576101008083540402835291602001916106b6565b820191906000526020600020905b81548152906001019060200180831161069957829003601f168201915b505050505090508d565b60008281526020819052604090206001015482906001600160a01b03166107025760405162461bcd60e51b81526004016106f990612731565b60405180910390fd5b3360009081526001602052604090205460ff168061072a57506003546001600160a01b031633145b6107465760405162461bcd60e51b81526004016106f990612760565b60008381526020819052604090206003600482015460ff16600681111561076f5761076f612235565b146107b05760405162461bcd60e51b81526020600482015260116024820152704e6f20616374697665206469737075746560781b60448201526064016106f9565b60018101546001600160a01b03848116911614806107dd575060028101546001600160a01b038481169116145b6108295760405162461bcd60e51b815260206004820152601e60248201527f57696e6e6572206d757374206265206275796572206f722073656c6c6572000060448201526064016106f9565b60078101805460ff191690556009810180546001600160a01b0319163390811790915542600a830155600090815260026020526040812080549161086c836127b7565b909155505060028101546001600160a01b03908116908416036109185760048101805460ff1916600290811790915581015460038201546040516001600160a01b03909216916108fc82150291906000818181858888f193505050501580156108d9573d6000803e3d6000fd5b50600281015460038201546040519081526001600160a01b03909116908590600080516020612a488339815191529060200160405180910390a36109a3565b6004818101805460ff19169091179055600181015460038201546040516001600160a01b03909216916108fc82150291906000818181858888f19350505050158015610968573d6000803e3d6000fd5b50600181015460038201546040519081526001600160a01b03909116908590600080516020612a288339815191529060200160405180910390a35b826001600160a01b0316847fdf0baf5489595ea17a097d16827d60793e2f57f3b85a982e5d7e02838b841ee683600301546040516109e391815260200190565b60405180910390a350505050565b60008281526020819052604090206001015482906001600160a01b0316610a2a5760405162461bcd60e51b81526004016106f990612731565b3360009081526001602052604090205460ff1680610a5257506003546001600160a01b031633145b610a6e5760405162461bcd60e51b81526004016106f990612760565b60008381526020819052604090206001600482015460ff166006811115610a9757610a97612235565b14610ab45760405162461bcd60e51b81526004016106f9906127d0565b600a83511015610ad65760405162461bcd60e51b81526004016106f990612807565b6004818101805460ff191660018302179055506009810180546001600160a01b0319163317905542600a820155600b8101610b11848261289b565b50336000908152600260205260408120805491610b2d836127b7565b9091555050600181015460038201546040516001600160a01b039092169181156108fc0291906000818181858888f19350505050158015610b72573d6000803e3d6000fd5b50336001600160a01b0316847fc7f1b91aa0f468815576e70bee03bf1877f63499eb20d68bcbb0d0e3277f01fb836003015486604051610bb392919061295b565b60405180910390a3600181015460038201546040519081526001600160a01b03909116908590600080516020612a28833981519152906020016109e3565b6003546001600160a01b03163314610c1b5760405162461bcd60e51b81526004016106f99061297c565b6003546001600160a01b0390811690821603610c6f5760405162461bcd60e51b815260206004820152601360248201527221b0b73737ba103932b6b7bb329037bbb732b960691b60448201526064016106f9565b6001600160a01b03166000908152600160205260409020805460ff19169055565b6001600160a01b03811660009081526001602052604081205460ff1680610cc457506003546001600160a01b038381169116145b92915050565b60008181526020819052604090206001015481906001600160a01b0316610d035760405162461bcd60e51b81526004016106f990612731565b60008281526020819052604090206001015482906001600160a01b03163314610d3e5760405162461bcd60e51b81526004016106f9906129bd565b60008381526020819052604090206001600482015460ff166006811115610d6757610d67612235565b14610d845760405162461bcd60e51b81526004016106f9906127d0565b600781015460ff1615610dd95760405162461bcd60e51b815260206004820152601d60248201527f43616e6e6f7420636f6e6669726d20647572696e67206469737075746500000060448201526064016106f9565b600481018054600260ff1990911681179091556009820180546001600160a01b0319163317905542600a83015581015460038201546040516001600160a01b039092169181156108fc0291906000818181858888f19350505050158015610e44573d6000803e3d6000fd5b50600281015460038201546040519081526001600160a01b03909116908590600080516020612a48833981519152906020016109e3565b3360009081526001602052604090205460ff1680610ea357506003546001600160a01b031633145b610ebf5760405162461bcd60e51b81526004016106f990612760565b6000835111610f095760405162461bcd60e51b8152602060048201526016602482015275139bc8195cd8dc9bddc812511cc81c1c9bdd9a59195960521b60448201526064016106f9565b601483511115610f5b5760405162461bcd60e51b815260206004820152601960248201527f546f6f206d616e7920657363726f777320696e2062617463680000000000000060448201526064016106f9565b600a81511015610f9f5760405162461bcd60e51b815260206004820152600f60248201526e1499585cdbdb881c995c5d5a5c9959608a1b60448201526064016106f9565b60018260ff161115610fe45760405162461bcd60e51b815260206004820152600e60248201526d24b73b30b634b21030b1ba34b7b760911b60448201526064016106f9565b60005b83518110156112da576000848281518110611004576110046129fe565b6020026020010151905060008111801561102057506004548111155b156112c75760008181526020819052604090206001600482015460ff16600681111561104e5761104e612235565b1480156110605750600781015460ff16155b156112c5578460ff166000036111a65760048101805460ff19166006179055600981018054336001600160a01b031990911617905542600a820155600b81016110a9858261289b565b503360009081526002602052604081208054916110c5836127b7565b9091555050600580549060006110da836127b7565b9091555050600281015460038201546040516001600160a01b039092169181156108fc0291906000818181858888f1935050505015801561111f573d6000803e3d6000fd5b50336001600160a01b0316827f04a6dae4d4072f14d1001d57f0c1691af7c76e6de704b07c561f346815e3503f83600301548760405161116092919061295b565b60405180910390a3600281015460038201546040519081526001600160a01b03909116908390600080516020612a488339815191529060200160405180910390a36112c5565b6004818101805460ff191660018302179055506009810180546001600160a01b0319163317905542600a820155600b81016111e1858261289b565b503360009081526002602052604081208054916111fd836127b7565b9091555050600181015460038201546040516001600160a01b039092169181156108fc0291906000818181858888f19350505050158015611242573d6000803e3d6000fd5b50336001600160a01b0316827fc7f1b91aa0f468815576e70bee03bf1877f63499eb20d68bcbb0d0e3277f01fb83600301548760405161128392919061295b565b60405180910390a3600181015460038201546040519081526001600160a01b03909116908390600080516020612a288339815191529060200160405180910390a35b505b50806112d2816127b7565b915050610fe7565b50505050565b60006001600160a01b0383166113315760405162461bcd60e51b8152602060048201526016602482015275496e76616c69642073656c6c6572206164647265737360501b60448201526064016106f9565b336001600160a01b038416036113955760405162461bcd60e51b815260206004820152602360248201527f427579657220616e642073656c6c65722063616e6e6f74206265207468652073604482015262616d6560e81b60648201526084016106f9565b600034116113e55760405162461bcd60e51b815260206004820152601d60248201527f416d6f756e74206d7573742062652067726561746572207468616e203000000060448201526064016106f9565b600480549060006113f5836127b7565b9091555050600454604080516101a0810182528281523360208201526001600160a01b03861691810191909152346060820152608081016001815260200142815260200162015180426114489190612a14565b81526000602080830182905260408084018390526060808501899052608080860185905260a086018590528251808501845285815260c090960195909552868452838352928190208551815591850151600183810180546001600160a01b039384166001600160a01b03199182161790915592870151600285018054919093169316929092179055918401516003820155918301516004830180549192909160ff1916908360068111156114fe576114fe612235565b021790555060a0820151600582015560c0820151600682015560e0820151600782018054610100808601516001600160a01b031602610100600160a81b0319931515939093166001600160a81b031990911617919091179055610120820151600882019061156c908261289b565b506101408201516009820180546001600160a01b0319166001600160a01b03909216919091179055610160820151600a820155610180820151600b8201906115b4908261289b565b50506040513481526001600160a01b0386169150339083907f9405ad0a6208539879349284d71265479b1623846f70303da1f9890d6e8c10a79060200160405180910390a4604051348152339082907f71284872bb4c088a81295dff2513729babbccfeda38a8d824bb1a73bcaab494e9060200160405180910390a39392505050565b60008181526020819052604090206001015481906001600160a01b03166116705760405162461bcd60e51b81526004016106f990612731565b600082815260208190526040902060018101546001600160a01b03163314806116a5575060028101546001600160a01b031633145b6117015760405162461bcd60e51b815260206004820152602760248201527f4f6e6c79206275796572206f722073656c6c65722063616e20637265617465206044820152666469737075746560c81b60648201526084016106f9565b6001600482015460ff16600681111561171c5761171c612235565b146117395760405162461bcd60e51b81526004016106f9906127d0565b600781015460ff16156117875760405162461bcd60e51b81526020600482015260166024820152754469737075746520616c72656164792061637469766560501b60448201526064016106f9565b60048101805460ff191660031790556007810180546001600160a81b031916610100339081029190911760011790915560405184907f3c9db11b5587ddca19c48971a5bd5cb36500cd7d156815c6728cbc58ff9ac6bf90600090a3505050565b6003546001600160a01b031633146118115760405162461bcd60e51b81526004016106f99061297c565b6001600160a01b03811661185f5760405162461bcd60e51b8152602060048201526015602482015274496e76616c69642061646d696e206164647265737360581b60448201526064016106f9565b6001600160a01b03166000908152600160208190526040909120805460ff19169091179055565b611905604080516101a081018252600080825260208201819052918101829052606081018290529060808201908152602001600081526020016000815260200160001515815260200160006001600160a01b031681526020016060815260200160006001600160a01b0316815260200160008152602001606081525090565b60008281526020819052604090206001015482906001600160a01b031661193e5760405162461bcd60e51b81526004016106f990612731565b6000838152602081815260409182902082516101a0810184528154815260018201546001600160a01b0390811693820193909352600282015490921692820192909252600382015460608201526004820154909190608083019060ff1660068111156119ac576119ac612235565b60068111156119bd576119bd612235565b81526005820154602082015260068201546040820152600782015460ff81161515606083015261010090046001600160a01b0316608082015260088201805460a090920191611a0b906126fd565b80601f0160208091040260200160405190810160405280929190818152602001828054611a37906126fd565b8015611a845780601f10611a5957610100808354040283529160200191611a84565b820191906000526020600020905b815481529060010190602001808311611a6757829003601f168201915b505050918352505060098201546001600160a01b03166020820152600a8201546040820152600b82018054606090920191611abe906126fd565b80601f0160208091040260200160405190810160405280929190818152602001828054611aea906126fd565b8015611b375780601f10611b0c57610100808354040283529160200191611b37565b820191906000526020600020905b815481529060010190602001808311611b1a57829003601f168201915b50505050508152505091505b50919050565b60008281526020819052604090206001015482906001600160a01b0316611b825760405162461bcd60e51b81526004016106f990612731565b3360009081526001602052604090205460ff1680611baa57506003546001600160a01b031633145b611bc65760405162461bcd60e51b81526004016106f990612760565b60008381526020819052604090206001600482015460ff166006811115611bef57611bef612235565b14611c0c5760405162461bcd60e51b81526004016106f9906127d0565b600a83511015611c2e5760405162461bcd60e51b81526004016106f990612807565b60048101805460ff19166006179055600981018054336001600160a01b031990911617905542600a820155600b8101611c67848261289b565b50336000908152600260205260408120805491611c83836127b7565b909155505060058054906000611c98836127b7565b9091555050600281015460038201546040516001600160a01b039092169181156108fc0291906000818181858888f19350505050158015611cdd573d6000803e3d6000fd5b50336001600160a01b0316847f04a6dae4d4072f14d1001d57f0c1691af7c76e6de704b07c561f346815e3503f836003015486604051611d1e92919061295b565b60405180910390a3600281015460038201546040519081526001600160a01b03909116908590600080516020612a48833981519152906020016109e3565b60008281526020819052604090206001015482906001600160a01b0316611d955760405162461bcd60e51b81526004016106f990612731565b3360009081526001602052604090205460ff1680611dbd57506003546001600160a01b031633145b611dd95760405162461bcd60e51b81526004016106f990612760565b60008381526020819052604090206001600482015460ff166006811115611e0257611e02612235565b14611e1f5760405162461bcd60e51b81526004016106f9906127d0565b600781015460ff1615611e6d5760405162461bcd60e51b81526020600482015260166024820152754469737075746520616c72656164792061637469766560501b60448201526064016106f9565b600a83511015611e8f5760405162461bcd60e51b81526004016106f990612807565b60048101805460ff191660031790556007810180546001600160a81b0319166101003302176001179055600b8101611ec7848261289b565b50604051339085907f3c9db11b5587ddca19c48971a5bd5cb36500cd7d156815c6728cbc58ff9ac6bf90600090a350505050565b6003546001600160a01b03163314611f255760405162461bcd60e51b81526004016106f99061297c565b6003546040516001600160a01b03909116904780156108fc02916000818181858888f19350505050158015611f5e573d6000803e3d6000fd5b50565b60008181526020819052604090206001015481906001600160a01b0316611f9a5760405162461bcd60e51b81526004016106f990612731565b600082815260208190526040902060068101544211611ff15760405162461bcd60e51b8152602060048201526013602482015272151a5b595bdd5d081b9bdd081c995858da1959606a1b60448201526064016106f9565b6001600482015460ff16600681111561200c5761200c612235565b146120595760405162461bcd60e51b815260206004820152601a60248201527f457363726f77206e6f7420696e2066756e64656420737461746500000000000060448201526064016106f9565b6004818101805460ff191690911790556009810180546001600160a01b0319163317905542600a820155600181015460038201546040516001600160a01b039092169181156108fc0291906000818181858888f193505050501580156120c3573d6000803e3d6000fd5b50600181015460038201546040519081526001600160a01b03909116908490600080516020612a288339815191529060200160405180910390a3505050565b60008181526020819052604090206001015481906001600160a01b031661213b5760405162461bcd60e51b81526004016106f990612731565b60008281526020819052604090206001015482906001600160a01b031633146121765760405162461bcd60e51b81526004016106f9906129bd565b600083815260208190526040812090600482015460ff16600681111561219e5761219e612235565b146121eb5760405162461bcd60e51b815260206004820152601b60248201527f43616e6e6f742063616e63656c2066756e64656420657363726f77000000000060448201526064016106f9565b60048101805460ff19166005179055600981018054336001600160a01b031990911617905542600a90910155505050565b60006020828403121561222e57600080fd5b5035919050565b634e487b7160e01b600052602160045260246000fd5b6007811061226957634e487b7160e01b600052602160045260246000fd5b9052565b6000815180845260005b8181101561229357602081850181015186830182015201612277565b506000602082860101526020601f19601f83011685010191505092915050565b8d81526001600160a01b038d811660208301528c166040820152606081018b905260006122e3608083018c61224b565b8960a08301528860c083015287151560e083015261230d6101008301886001600160a01b03169052565b6101a06101208301526123246101a083018761226d565b6001600160a01b0386166101408401528461016084015282810361018084015261234e818561226d565b9150509e9d5050505050505050505050505050565b80356001600160a01b038116811461237a57600080fd5b919050565b6000806040838503121561239257600080fd5b823591506123a260208401612363565b90509250929050565b634e487b7160e01b600052604160045260246000fd5b604051601f8201601f1916810167ffffffffffffffff811182821017156123ea576123ea6123ab565b604052919050565b600082601f83011261240357600080fd5b813567ffffffffffffffff81111561241d5761241d6123ab565b612430601f8201601f19166020016123c1565b81815284602083860101111561244557600080fd5b816020850160208301376000918101602001919091529392505050565b6000806040838503121561247557600080fd5b82359150602083013567ffffffffffffffff81111561249357600080fd5b61249f858286016123f2565b9150509250929050565b6000602082840312156124bb57600080fd5b6124c482612363565b9392505050565b803560ff8116811461237a57600080fd5b6000806000606084860312156124f157600080fd5b833567ffffffffffffffff8082111561250957600080fd5b818601915086601f83011261251d57600080fd5b8135602082821115612531576125316123ab565b8160051b6125408282016123c1565b928352848101820192828101908b85111561255a57600080fd5b958301955b848710156125785786358252958301959083019061255f565b98506125889150508882016124cb565b9550505060408601359150808211156125a057600080fd5b506125ad868287016123f2565b9150509250925092565b600080604083850312156125ca57600080fd5b6125d383612363565b9150602083013567ffffffffffffffff81111561249357600080fd5b60208152815160208201526000602083015161261660408401826001600160a01b03169052565b5060408301516001600160a01b03811660608401525060608301516080830152608083015161264860a084018261224b565b5060a083015160c083015260c083015160e083015260e08301516101006126728185018315159052565b840151905061012061268e848201836001600160a01b03169052565b808501519150506101a061014081818601526126ae6101c086018461226d565b908601519092506101606126cc868201836001600160a01b03169052565b86015161018086810191909152860151858403601f19018387015290506126f3838261226d565b9695505050505050565b600181811c9082168061271157607f821691505b602082108103611b4357634e487b7160e01b600052602260045260246000fd5b602080825260159082015274115cd8dc9bddc8191bd95cc81b9bdd08195e1a5cdd605a1b604082015260600190565b60208082526021908201527f4f6e6c792061646d696e2063616e2063616c6c20746869732066756e6374696f6040820152603760f91b606082015260800190565b634e487b7160e01b600052601160045260246000fd5b6000600182016127c9576127c96127a1565b5060010190565b6020808252601d908201527f457363726f77206973206e6f7420696e2066756e646564207374617465000000604082015260600190565b60208082526025908201527f526561736f6e206d757374206265206174206c65617374203130206368617261604082015264637465727360d81b606082015260800190565b601f82111561289657600081815260208120601f850160051c810160208610156128735750805b601f850160051c820191505b818110156128925782815560010161287f565b5050505b505050565b815167ffffffffffffffff8111156128b5576128b56123ab565b6128c9816128c384546126fd565b8461284c565b602080601f8311600181146128fe57600084156128e65750858301515b600019600386901b1c1916600185901b178555612892565b600085815260208120601f198616915b8281101561292d5788860151825594840194600190910190840161290e565b508582101561294b5787850151600019600388901b60f8161c191681555b5050505050600190811b01905550565b828152604060208201526000612974604083018461226d565b949350505050565b60208082526021908201527f4f6e6c79206f776e65722063616e2063616c6c20746869732066756e6374696f6040820152603760f91b606082015260800190565b60208082526021908201527f4f6e6c792062757965722063616e2063616c6c20746869732066756e6374696f6040820152603760f91b606082015260800190565b634e487b7160e01b600052603260045260246000fd5b80820180821115610cc457610cc46127a156fee89ec1881a76229445bcd179b8c4b24f9edc7ddd87d07fb3b19c67ae9c6e27cc21d71db5be59bb9fa133895586b7404307dd33fb93b16db09dc6f1d9d7d231b0a26469706673582212209167c31dc6f0d82c170bb47f664ff1d8f3d39f9540dc68e961eec5e02113ae2a64736f6c63430008130033",
  "linkReferences": {},
  "deployedLinkReferences": {}
}